{
    "contractName": "UHKPool",
    "abi": [
        {
            "anonymous": false,
            "inputs": [
                {
                    "indexed": true,
                    "internalType": "address",
                    "name": "investor",
                    "type": "address"
                },
                {
                    "indexed": false,
                    "internalType": "uint256",
                    "name": "value",
                    "type": "uint256"
                }
            ],
            "name": "Contribute",
            "type": "event"
        },
        {
            "anonymous": false,
            "inputs": [
                {
                    "indexed": true,
                    "internalType": "address",
                    "name": "previousOwner",
                    "type": "address"
                },
                {
                    "indexed": true,
                    "internalType": "address",
                    "name": "newOwner",
                    "type": "address"
                }
            ],
            "name": "OwnershipTransferred",
            "type": "event"
        },
        {
            "inputs": [],
            "name": "addLiquidity",
            "outputs": [],
            "stateMutability": "nonpayable",
            "type": "function"
        },
        {
            "inputs": [
                {
                    "internalType": "bool",
                    "name": "sale",
                    "type": "bool"
                }
            ],
            "name": "closeOpenSale",
            "outputs": [],
            "stateMutability": "nonpayable",
            "type": "function"
        },
        {
            "inputs": [],
            "name": "getMaxAmountOfToken",
            "outputs": [
                {
                    "internalType": "uint256",
                    "name": "",
                    "type": "uint256"
                }
            ],
            "stateMutability": "view",
            "type": "function"
        },
        {
            "inputs": [],
            "name": "getTimeLockDuration",
            "outputs": [
                {
                    "internalType": "uint256",
                    "name": "",
                    "type": "uint256"
                }
            ],
            "stateMutability": "view",
            "type": "function"
        },
        {
            "inputs": [],
            "name": "getTokenAddress",
            "outputs": [
                {
                    "internalType": "address",
                    "name": "",
                    "type": "address"
                }
            ],
            "stateMutability": "view",
            "type": "function"
        },
        {
            "inputs": [
                {
                    "internalType": "address",
                    "name": "tokenAddress",
                    "type": "address"
                },
                {
                    "internalType": "address",
                    "name": "routerAddress",
                    "type": "address"
                },
                {
                    "internalType": "uint256",
                    "name": "maxTokenAmount",
                    "type": "uint256"
                }
            ],
            "name": "initialize",
            "outputs": [],
            "stateMutability": "nonpayable",
            "type": "function"
        },
        {
            "inputs": [
                {
                    "internalType": "uint256",
                    "name": "liquidity",
                    "type": "uint256"
                }
            ],
            "name": "lpTokenAprrove",
            "outputs": [],
            "stateMutability": "nonpayable",
            "type": "function"
        },
        {
            "inputs": [],
            "name": "owner",
            "outputs": [
                {
                    "internalType": "address",
                    "name": "",
                    "type": "address"
                }
            ],
            "stateMutability": "view",
            "type": "function"
        },
        {
            "inputs": [],
            "name": "redeem",
            "outputs": [],
            "stateMutability": "nonpayable",
            "type": "function"
        },
        {
            "inputs": [],
            "name": "removeLiquidity",
            "outputs": [],
            "stateMutability": "nonpayable",
            "type": "function"
        },
        {
            "inputs": [],
            "name": "renounceOwnership",
            "outputs": [],
            "stateMutability": "nonpayable",
            "type": "function"
        },
        {
            "inputs": [
                {
                    "internalType": "string",
                    "name": "level",
                    "type": "string"
                },
                {
                    "internalType": "uint256",
                    "name": "rate",
                    "type": "uint256"
                }
            ],
            "name": "setCommissionRatePlan",
            "outputs": [],
            "stateMutability": "nonpayable",
            "type": "function"
        },
        {
            "inputs": [
                {
                    "internalType": "uint256",
                    "name": "exchageRate",
                    "type": "uint256"
                }
            ],
            "name": "setInitialExchangeRate",
            "outputs": [],
            "stateMutability": "nonpayable",
            "type": "function"
        },
        {
            "inputs": [
                {
                    "internalType": "uint256",
                    "name": "amount",
                    "type": "uint256"
                }
            ],
            "name": "setMaxAmountOfToKen",
            "outputs": [],
            "stateMutability": "nonpayable",
            "type": "function"
        },
        {
            "inputs": [
                {
                    "internalType": "uint256",
                    "name": "duration",
                    "type": "uint256"
                }
            ],
            "name": "setTimeLockDuration",
            "outputs": [],
            "stateMutability": "nonpayable",
            "type": "function"
        },
        {
            "inputs": [
                {
                    "internalType": "address",
                    "name": "tokenAddress",
                    "type": "address"
                }
            ],
            "name": "setTokenAddress",
            "outputs": [],
            "stateMutability": "nonpayable",
            "type": "function"
        },
        {
            "inputs": [
                {
                    "internalType": "uint256",
                    "name": "amount",
                    "type": "uint256"
                }
            ],
            "name": "subscribe",
            "outputs": [],
            "stateMutability": "nonpayable",
            "type": "function"
        },
        {
            "inputs": [
                {
                    "internalType": "address",
                    "name": "newOwner",
                    "type": "address"
                }
            ],
            "name": "transferOwnership",
            "outputs": [],
            "stateMutability": "nonpayable",
            "type": "function"
        },
        {
            "inputs": [],
            "name": "uniswapV2Pair",
            "outputs": [
                {
                    "internalType": "contract IUniswapV2Pair",
                    "name": "",
                    "type": "address"
                }
            ],
            "stateMutability": "view",
            "type": "function"
        },
        {
            "inputs": [],
            "name": "uniswapV2Router",
            "outputs": [
                {
                    "internalType": "contract IUniswapV2Router02",
                    "name": "",
                    "type": "address"
                }
            ],
            "stateMutability": "view",
            "type": "function"
        },
        {
            "inputs": [
                {
                    "internalType": "address payable",
                    "name": "receiver",
                    "type": "address"
                },
                {
                    "internalType": "uint256",
                    "name": "amount",
                    "type": "uint256"
                }
            ],
            "name": "withdrawETH",
            "outputs": [],
            "stateMutability": "nonpayable",
            "type": "function"
        },
        {
            "inputs": [
                {
                    "internalType": "address",
                    "name": "receiver",
                    "type": "address"
                },
                {
                    "internalType": "uint256",
                    "name": "amount",
                    "type": "uint256"
                }
            ],
            "name": "withdrawToken",
            "outputs": [],
            "stateMutability": "nonpayable",
            "type": "function"
        },
        {
            "stateMutability": "payable",
            "type": "receive"
        }
    ],
    "bytecode": "608060405262ed4e00606b55606c805460ff1916905534801561002157600080fd5b506120ba806100316000396000f3fe6080604052600436106101395760003560e01c8063776d1a86116100ab578063b0f857d11161006f578063b0f857d11461033a578063b7af1f171461035a578063be040fb01461037a578063e8078d941461038f578063f2fde38b146103a4578063f4514a40146103c457600080fd5b8063776d1a86146102a85780637effcd6b146102c7578063848e3e4d146102dc5780638da5cb5b146102fc5780639e281a981461031a57600080fd5b80634782f779116100fd5780634782f779146101fe57806349bd5a5e1461021e578063552c8aa21461023e57806367b9a2861461025e57806371115eb214610273578063715018a61461029357600080fd5b80630f574ba71461014557806310fe9ae8146101675780631694505e1461019e5780631794bb3c146101be57806326a4e8d2146101de57600080fd5b3661014057005b600080fd5b34801561015157600080fd5b50610165610160366004611e48565b6103e4565b005b34801561017357600080fd5b506065546001600160a01b03165b6040516001600160a01b0390911681526020015b60405180910390f35b3480156101aa57600080fd5b50606654610181906001600160a01b031681565b3480156101ca57600080fd5b506101656101d9366004611d18565b610713565b3480156101ea57600080fd5b506101656101f9366004611cb2565b610b11565b34801561020a57600080fd5b50610165610219366004611cec565b610c20565b34801561022a57600080fd5b50606754610181906001600160a01b031681565b34801561024a57600080fd5b50610165610259366004611e48565b610c58565b34801561026a57600080fd5b50610165610cd9565b34801561027f57600080fd5b5061016561028e366004611e48565b610d05565b34801561029f57600080fd5b50610165610d9e565b3480156102b457600080fd5b506068545b604051908152602001610195565b3480156102d357600080fd5b50606b546102b9565b3480156102e857600080fd5b506101656102f7366004611e48565b610dd2565b34801561030857600080fd5b506033546001600160a01b0316610181565b34801561032657600080fd5b50610165610335366004611cec565b610e51565b34801561034657600080fd5b50610165610355366004611d93565b610e85565b34801561036657600080fd5b50610165610375366004611d59565b610ed4565b34801561038657600080fd5b50610165610f11565b34801561039b57600080fd5b5061016561110e565b3480156103b057600080fd5b506101656103bf366004611cb2565b611296565b3480156103d057600080fd5b506101656103df366004611e48565b61132e565b606c5460ff161561043c5760405162461bcd60e51b815260206004820152601f60248201527f546869732073616c652069732066696e69736865642062792061646d696e210060448201526064015b60405180910390fd5b60685460695461044c9083611465565b106104b55760405162461bcd60e51b815260206004820152603360248201527f596f752063616e277420636f6e74726962757465206d6f7265207468616e206d604482015272185e1a5b5d5b481d1bdad95b88185b5bdd5b9d606a1b6064820152608401610433565b600081116105135760405162461bcd60e51b815260206004820152602560248201527f596f75206e65656420746f2073656c6c206174206c6561737420736f6d6520746044820152646f6b656e7360d81b6064820152608401610433565b336000908152606d6020526040902054156105705760405162461bcd60e51b815260206004820152601c60248201527f596f75206861766520616c726561647920636f6e7472696275746564000000006044820152606401610433565b606554604051636eb1769f60e11b81523360048201523060248201526000916001600160a01b03169063dd62ed3e9060440160206040518083038186803b1580156105ba57600080fd5b505afa1580156105ce573d6000803e3d6000fd5b505050506040513d601f19601f820116820180604052508101906105f29190611e61565b9050818110156106445760405162461bcd60e51b815260206004820152601960248201527f436865636b2074686520746f6b656e20616c6c6f77616e6365000000000000006044820152606401610433565b336000908152606d60205260409020829055606b546106639042611fc5565b336000908152606e60205260409020556069546106809083611465565b6069556065546040516323b872dd60e01b8152336004820152306024820152604481018490526001600160a01b03909116906323b872dd906064015b602060405180830381600087803b1580156106d657600080fd5b505af11580156106ea573d6000803e3d6000fd5b505050506040513d601f19601f8201168201806040525081019061070e9190611d76565b505050565b600054610100900460ff168061072c575060005460ff16155b6107485760405162461bcd60e51b815260040161043390611f42565b600054610100900460ff1615801561076a576000805461ffff19166101011790555b610772611478565b6068829055606580546001600160a01b0319166001600160a01b03861617905561079a6114f3565b60008390506000816001600160a01b031663c45a01556040518163ffffffff1660e01b815260040160206040518083038186803b1580156107da57600080fd5b505afa1580156107ee573d6000803e3d6000fd5b505050506040513d601f19601f820116820180604052508101906108129190611ccf565b6001600160a01b031663e6a4390587846001600160a01b031663ad5c46486040518163ffffffff1660e01b815260040160206040518083038186803b15801561085a57600080fd5b505afa15801561086e573d6000803e3d6000fd5b505050506040513d601f19601f820116820180604052508101906108929190611ccf565b6040516001600160e01b031960e085901b1681526001600160a01b0392831660048201529116602482015260440160206040518083038186803b1580156108d857600080fd5b505afa1580156108ec573d6000803e3d6000fd5b505050506040513d601f19601f820116820180604052508101906109109190611ccf565b90506001600160a01b038116610ab657816001600160a01b031663c45a01556040518163ffffffff1660e01b815260040160206040518083038186803b15801561095957600080fd5b505afa15801561096d573d6000803e3d6000fd5b505050506040513d601f19601f820116820180604052508101906109919190611ccf565b6001600160a01b031663c9c6539687846001600160a01b031663ad5c46486040518163ffffffff1660e01b815260040160206040518083038186803b1580156109d957600080fd5b505afa1580156109ed573d6000803e3d6000fd5b505050506040513d601f19601f82011682018060405250810190610a119190611ccf565b6040516001600160e01b031960e085901b1681526001600160a01b03928316600482015291166024820152604401602060405180830381600087803b158015610a5957600080fd5b505af1158015610a6d573d6000803e3d6000fd5b505050506040513d601f19601f82011682018060405250810190610a919190611ccf565b606780546001600160a01b0319166001600160a01b0392909216919091179055610ad2565b606780546001600160a01b0319166001600160a01b0383161790555b50606680546001600160a01b0319166001600160a01b0392909216919091179055612710606a558015610b0b576000805461ff00191690555b50505050565b6033546001600160a01b03163314610b3b5760405162461bcd60e51b815260040161043390611f90565b6065546001600160a01b0382811691161415610b995760405162461bcd60e51b815260206004820152601f60248201527f43616e2774206368616e67652073616d6520746f6b656e2061646472657373006044820152606401610433565b6001600160a01b038116610bfe5760405162461bcd60e51b815260206004820152602660248201527f54686520746f6b656e20616464726573732063616e206e6f742062652030206160448201526564647265737360d01b6064820152608401610433565b606580546001600160a01b0319166001600160a01b0392909216919091179055565b6033546001600160a01b03163314610c4a5760405162461bcd60e51b815260040161043390611f90565b610c5482826115cf565b5050565b6033546001600160a01b03163314610c825760405162461bcd60e51b815260040161043390611f90565b806068541415610cd45760405162461bcd60e51b815260206004820152601860248201527f43616e2774206368616e67652073616d6520616d6f756e7400000000000000006044820152606401610433565b606855565b6033546001600160a01b03163314610d035760405162461bcd60e51b815260040161043390611f90565b565b6033546001600160a01b03163314610d2f5760405162461bcd60e51b815260040161043390611f90565b60008111610d8b5760405162461bcd60e51b815260206004820152602360248201527f5468652074696d65206c6f636b206475726174696f6e2063616e206e6f74206260448201526206520360ec1b6064820152608401610433565b610d988162015180611fff565b606b5550565b6033546001600160a01b03163314610dc85760405162461bcd60e51b815260040161043390611f90565b610d03600061163c565b6033546001600160a01b03163314610dfc5760405162461bcd60e51b815260040161043390611f90565b60008111610e4c5760405162461bcd60e51b815260206004820181905260248201527f5468652065786368616e67652072617465206d757374206265206f76657220306044820152606401610433565b606a55565b6033546001600160a01b03163314610e7b5760405162461bcd60e51b815260040161043390611f90565b610c54828261168e565b6033546001600160a01b03163314610eaf5760405162461bcd60e51b815260040161043390611f90565b80606f83604051610ec09190611ecc565b908152604051908190036020019020555050565b6033546001600160a01b03163314610efe5760405162461bcd60e51b815260040161043390611f90565b606c805460ff1916911515919091179055565b336000908152606d6020526040902054610f6d5760405162461bcd60e51b815260206004820152601860248201527f596f75206469646e277420636f6e7472696275742079657400000000000000006044820152606401610433565b336000908152606e60205260409020544211610fcb5760405162461bcd60e51b815260206004820152601860248201527f446f6e277420616c6c6f772074686973206665617475726500000000000000006044820152606401610433565b6000610fd633611717565b9050600080610fe4836117e8565b91509150600080611020606d6000610ff93390565b6001600160a01b03166001600160a01b031681526020019081526020016000205485611993565b91509150611055606d60006110323390565b6001600160a01b0316815260208101919091526040016000205460695490611b30565b50336000818152606d60209081526040808320839055606554815163a9059cbb60e01b815260048101959095526024850186905290516001600160a01b039091169363a9059cbb9360448083019493928390030190829087803b1580156110bb57600080fd5b505af11580156110cf573d6000803e3d6000fd5b505050506040513d601f19601f820116820180604052508101906110f39190611d76565b50611107336111028585611b3c565b6115cf565b5050505050565b6033546001600160a01b031633146111385760405162461bcd60e51b815260040161043390611f90565b606c5460ff16151560011461118f5760405162461bcd60e51b815260206004820152601b60248201527f546869732073616c6520646964206e6f7420636c6f73652079657400000000006044820152606401610433565b60006111a8606a54606954611b4890919063ffffffff16565b9050804710156111fa5760405162461bcd60e51b815260206004820152601b60248201527f457468657220616d6f756e74206973206e6f7420656e676f75676800000000006044820152606401610433565b60655460665460695460405163095ea7b360e01b81526001600160a01b039283166004820152602481019190915291169063095ea7b390604401602060405180830381600087803b15801561124e57600080fd5b505af1158015611262573d6000803e3d6000fd5b505050506040513d601f19601f820116820180604052508101906112869190611d76565b5061129360695482611b54565b50565b6033546001600160a01b031633146112c05760405162461bcd60e51b815260040161043390611f90565b6001600160a01b0381166113255760405162461bcd60e51b815260206004820152602660248201527f4f776e61626c653a206e6577206f776e657220697320746865207a65726f206160448201526564647265737360d01b6064820152608401610433565b6112938161163c565b6033546001600160a01b031633146113585760405162461bcd60e51b815260040161043390611f90565b60675460405163095ea7b360e01b8152306004820152602481018390526001600160a01b039091169063095ea7b390604401602060405180830381600087803b1580156113a457600080fd5b505af11580156113b8573d6000803e3d6000fd5b505050506040513d601f19601f820116820180604052508101906113dc9190611d76565b5060675460665460405163095ea7b360e01b81526001600160a01b0391821660048201526024810184905291169063095ea7b390604401602060405180830381600087803b15801561142d57600080fd5b505af1158015611441573d6000803e3d6000fd5b505050506040513d601f19601f82011682018060405250810190610c549190611d76565b60006114718284611fc5565b9392505050565b600054610100900460ff1680611491575060005460ff16155b6114ad5760405162461bcd60e51b815260040161043390611f42565b600054610100900460ff161580156114cf576000805461ffff19166101011790555b6114d7611be8565b6114df611c52565b8015611293576000805461ff001916905550565b6000606f604051611510906506c6576656c360d41b815260060190565b9081526040805160209281900392909201822092909255656c6576656c3160d01b8152606f6006808301829052835160269381900384018120600a9055653632bb32b61960d11b815280820183905284519081900384018120600f9055656c6576656c3360d01b815280820183905284519081900384018120601e9055651b195d995b0d60d21b81528082018390528451908190038401812060329055656c6576656c3560d01b81529081019190915291519182900301902060649055565b6040516000906001600160a01b0384169083156108fc0290849084818181858888f1935050505090508061070e5760405162461bcd60e51b81526020600482015260146024820152732330b4b632b2103a379039b2b7321022ba3432b960611b6044820152606401610433565b603380546001600160a01b038381166001600160a01b0319831681179093556040519116919082907f8be0079c531659141344cd1fd0a4f28419497f9722a3daafe3b4186f6b6457e090600090a35050565b600081116116de5760405162461bcd60e51b815260206004820152601b60248201527f596f75206e65656420746f2073656e6420736f6d6520746f6b656e00000000006044820152606401610433565b60655460405163a9059cbb60e01b81526001600160a01b038481166004830152602482018490529091169063a9059cbb906044016106bc565b6067546040516370a0823160e01b815230600482015260009182916001600160a01b03909116906370a082319060240160206040518083038186803b15801561175f57600080fd5b505afa158015611773573d6000803e3d6000fd5b505050506040513d601f19601f820116820180604052508101906117979190611e61565b6069546001600160a01b0385166000908152606d6020526040812054929350916117ce91906117c890612710611b3c565b90611b48565b90506117e06127106117c88484611b3c565b949350505050565b60675460405163095ea7b360e01b81523060048201526024810183905260009182916001600160a01b039091169063095ea7b390604401602060405180830381600087803b15801561183957600080fd5b505af115801561184d573d6000803e3d6000fd5b505050506040513d601f19601f820116820180604052508101906118719190611d76565b5060675460665460405163095ea7b360e01b81526001600160a01b0391821660048201526024810186905291169063095ea7b390604401602060405180830381600087803b1580156118c257600080fd5b505af11580156118d6573d6000803e3d6000fd5b505050506040513d601f19601f820116820180604052508101906118fa9190611d76565b50606654606554604051629d473b60e21b81526001600160a01b03928316926302751cec92611939929116908790600090819030904290600401611f07565b6040805180830381600087803b15801561195257600080fd5b505af1158015611966573d6000803e3d6000fd5b505050506040513d601f19601f8201168201806040525081019061198a9190611e7a565b91509150915091565b600080600080848611156119cc576040516506c6576656c360d41b8152606f906006019081526020016040518091039020549150611b25565b84861080156119ea5750846119e7600a6117c889600f611b3c565b10155b15611a1e57604051656c6576656c3160d01b8152606f906006015b9081526020016040518091039020549150859050611b25565b84611a2f600a6117c889600f611b3c565b108015611a46575084611a43876002611b3c565b10155b15611a6557604051653632bb32b61960d11b8152606f90600601611a05565b84611a71876002611b3c565b108015611a88575084611a85876003611b3c565b10155b15611aa757604051656c6576656c3360d01b8152606f90600601611a05565b84611ab3876003611b3c565b108015611aca575084611ac7876005611b3c565b10155b15611aec57604051651b195d995b0d60d21b8152606f90600601525084611b25565b84611af8876005611b3c565b1015611b2557505060408051656c6576656c3560d01b8152606f6006820152905190819003602601902054845b909590945092505050565b6000611471828461201e565b60006114718284611fff565b60006114718284611fdd565b60665460655460405163f305d71960e01b81526001600160a01b039283169263f305d719928592611b9692909116908790600090819030904290600401611f07565b6060604051808303818588803b158015611baf57600080fd5b505af1158015611bc3573d6000803e3d6000fd5b50505050506040513d601f19601f820116820180604052508101906111079190611e9e565b600054610100900460ff1680611c01575060005460ff16155b611c1d5760405162461bcd60e51b815260040161043390611f42565b600054610100900460ff161580156114df576000805461ffff19166101011790558015611293576000805461ff001916905550565b600054610100900460ff1680611c6b575060005460ff16155b611c875760405162461bcd60e51b815260040161043390611f42565b600054610100900460ff16158015611ca9576000805461ffff19166101011790555b6114df3361163c565b600060208284031215611cc457600080fd5b813561147181612061565b600060208284031215611ce157600080fd5b815161147181612061565b60008060408385031215611cff57600080fd5b8235611d0a81612061565b946020939093013593505050565b600080600060608486031215611d2d57600080fd5b8335611d3881612061565b92506020840135611d4881612061565b929592945050506040919091013590565b600060208284031215611d6b57600080fd5b813561147181612076565b600060208284031215611d8857600080fd5b815161147181612076565b60008060408385031215611da657600080fd5b823567ffffffffffffffff80821115611dbe57600080fd5b818501915085601f830112611dd257600080fd5b813581811115611de457611de461204b565b604051601f8201601f19908116603f01168101908382118183101715611e0c57611e0c61204b565b81604052828152886020848701011115611e2557600080fd5b826020860160208301376000602093820184015298969091013596505050505050565b600060208284031215611e5a57600080fd5b5035919050565b600060208284031215611e7357600080fd5b5051919050565b60008060408385031215611e8d57600080fd5b505080516020909101519092909150565b600080600060608486031215611eb357600080fd5b8351925060208401519150604084015190509250925092565b6000825160005b81811015611eed5760208186018101518583015201611ed3565b81811115611efc576000828501525b509190910192915050565b6001600160a01b039687168152602081019590955260408501939093526060840191909152909216608082015260a081019190915260c00190565b6020808252602e908201527f496e697469616c697a61626c653a20636f6e747261637420697320616c72656160408201526d191e481a5b9a5d1a585b1a5e995960921b606082015260800190565b6020808252818101527f4f776e61626c653a2063616c6c6572206973206e6f7420746865206f776e6572604082015260600190565b60008219821115611fd857611fd8612035565b500190565b600082611ffa57634e487b7160e01b600052601260045260246000fd5b500490565b600081600019048311821515161561201957612019612035565b500290565b60008282101561203057612030612035565b500390565b634e487b7160e01b600052601160045260246000fd5b634e487b7160e01b600052604160045260246000fd5b6001600160a01b038116811461129357600080fd5b801515811461129357600080fdfea26469706673582212204001b2df29ca311381a0ba8c6c47b0c135da8a0e0fca6c56c24ba871d027230964736f6c63430008070033",
    "sourcePath": "d:/Blockchain/Smart Contract/Solidity/ukhpool/contracts/UKHPool.sol",
    "compiler": {
        "name": "solc",
        "version": "0.8.7+commit.e28d00a7"
    },
    "functionHashes": {
        "addLiquidity()": "e8078d94",
        "closeOpenSale(bool)": "b7af1f17",
        "getMaxAmountOfToken()": "776d1a86",
        "getTimeLockDuration()": "7effcd6b",
        "getTokenAddress()": "10fe9ae8",
        "initialize(address,address,uint256)": "1794bb3c",
        "lpTokenAprrove(uint256)": "f4514a40",
        "owner()": "8da5cb5b",
        "redeem()": "be040fb0",
        "removeLiquidity()": "67b9a286",
        "renounceOwnership()": "715018a6",
        "setCommissionRatePlan(string,uint256)": "b0f857d1",
        "setInitialExchangeRate(uint256)": "848e3e4d",
        "setMaxAmountOfToKen(uint256)": "552c8aa2",
        "setTimeLockDuration(uint256)": "71115eb2",
        "setTokenAddress(address)": "26a4e8d2",
        "subscribe(uint256)": "0f574ba7",
        "transferOwnership(address)": "f2fde38b",
        "uniswapV2Pair()": "49bd5a5e",
        "uniswapV2Router()": "1694505e",
        "withdrawETH(address,uint256)": "4782f779",
        "withdrawToken(address,uint256)": "9e281a98"
    },
    "gasEstimates": {
        "creation": {
            "codeDepositCost": "1675600",
            "executionCost": "48081",
            "totalCost": "1723681"
        },
        "external": {
            "addLiquidity()": "infinite",
            "closeOpenSale(bool)": "26707",
            "getMaxAmountOfToken()": "2304",
            "getTimeLockDuration()": "2337",
            "getTokenAddress()": "2355",
            "initialize(address,address,uint256)": "infinite",
            "lpTokenAprrove(uint256)": "infinite",
            "owner()": "2409",
            "redeem()": "infinite",
            "removeLiquidity()": "2498",
            "renounceOwnership()": "28250",
            "setCommissionRatePlan(string,uint256)": "infinite",
            "setInitialExchangeRate(uint256)": "24554",
            "setMaxAmountOfToKen(uint256)": "26657",
            "setTimeLockDuration(uint256)": "24692",
            "setTokenAddress(address)": "29005",
            "subscribe(uint256)": "infinite",
            "transferOwnership(address)": "infinite",
            "uniswapV2Pair()": "2371",
            "uniswapV2Router()": "2394",
            "withdrawETH(address,uint256)": "infinite",
            "withdrawToken(address,uint256)": "infinite"
        },
        "internal": {
            "_addLiquidity(uint256,uint256)": "infinite",
            "_getCommissionRate(uint256,uint256)": "infinite",
            "_getRemoveLPTokenAmount(address)": "infinite",
            "_removeLiquidity(uint256)": "infinite",
            "_withdrawETH(address payable,uint256)": "infinite",
            "_withdrawToken(address,uint256)": "infinite",
            "initCommissionRate()": "infinite"
        }
    }
}